{
  "contractName": "Crud",
  "abi": [
    {
      "inputs": [
        {
          "internalType": "uint256",
          "name": "",
          "type": "uint256"
        }
      ],
      "name": "users",
      "outputs": [
        {
          "internalType": "uint256",
          "name": "id",
          "type": "uint256"
        },
        {
          "internalType": "string",
          "name": "name",
          "type": "string"
        }
      ],
      "stateMutability": "view",
      "type": "function",
      "constant": true
    },
    {
      "inputs": [
        {
          "internalType": "string",
          "name": "_name",
          "type": "string"
        }
      ],
      "name": "create",
      "outputs": [],
      "stateMutability": "nonpayable",
      "type": "function"
    },
    {
      "inputs": [
        {
          "internalType": "uint256",
          "name": "_id",
          "type": "uint256"
        }
      ],
      "name": "read",
      "outputs": [
        {
          "internalType": "uint256",
          "name": "",
          "type": "uint256"
        },
        {
          "internalType": "string",
          "name": "",
          "type": "string"
        }
      ],
      "stateMutability": "view",
      "type": "function",
      "constant": true
    },
    {
      "inputs": [
        {
          "internalType": "uint256",
          "name": "_id",
          "type": "uint256"
        },
        {
          "internalType": "string",
          "name": "_name",
          "type": "string"
        }
      ],
      "name": "update",
      "outputs": [],
      "stateMutability": "nonpayable",
      "type": "function"
    },
    {
      "inputs": [
        {
          "internalType": "uint256",
          "name": "_id",
          "type": "uint256"
        }
      ],
      "name": "destroy",
      "outputs": [],
      "stateMutability": "nonpayable",
      "type": "function"
    }
  ],
  "bytecode": "0x60806040526001805534801561001457600080fd5b50610a32806100246000396000f3fe608060405234801561001057600080fd5b50600436106100575760003560e01c8063365b98b21461005c5780639d1187701461008d578063b6a46b3b146100a9578063ed2e5a97146100c5578063f745630f146100f6575b600080fd5b610076600480360381019061007191906105ab565b610112565b604051610084929190610680565b60405180910390f35b6100a760048036038101906100a291906105ab565b6101ce565b005b6100c360048036038101906100be91906107e5565b61021c565b005b6100df60048036038101906100da91906105ab565b6102a2565b6040516100ed929190610680565b60405180910390f35b610110600480360381019061010b919061082e565b610394565b005b6000818154811061012257600080fd5b906000526020600020906002020160009150905080600001549080600101805461014b906108b9565b80601f0160208091040260200160405190810160405280929190818152602001828054610177906108b9565b80156101c45780601f10610199576101008083540402835291602001916101c4565b820191906000526020600020905b8154815290600101906020018083116101a757829003601f168201915b5050505050905082565b60006101d9826103e0565b9050600081815481106101ef576101ee6108ea565b5b9060005260206000209060020201600080820160009055600182016000610216919061047e565b50505050565b6000604051806040016040528060015481526020018381525090806001815401808255809150506001900390600052602060002090600202016000909190919091506000820151816000015560208201518160010190805190602001906102849291906104be565b5050506001600081548092919061029a90610948565b919050555050565b6000606060006102b1846103e0565b9050600081815481106102c7576102c66108ea565b5b906000526020600020906002020160000154600082815481106102ed576102ec6108ea565b5b906000526020600020906002020160010180805461030a906108b9565b80601f0160208091040260200160405190810160405280929190818152602001828054610336906108b9565b80156103835780601f1061035857610100808354040283529160200191610383565b820191906000526020600020905b81548152906001019060200180831161036657829003601f168201915b505050505090509250925050915091565b600061039f836103e0565b905081600082815481106103b6576103b56108ea565b5b906000526020600020906002020160010190805190602001906103da9291906104be565b50505050565b600080600090505b60008054905081101561043d57826000828154811061040a576104096108ea565b5b9060005260206000209060020201600001540361042a5780915050610479565b808061043590610948565b9150506103e8565b506040517f08c379a0000000000000000000000000000000000000000000000000000000008152600401610470906109dc565b60405180910390fd5b919050565b50805461048a906108b9565b6000825580601f1061049c57506104bb565b601f0160209004906000526020600020908101906104ba9190610544565b5b50565b8280546104ca906108b9565b90600052602060002090601f0160209004810192826104ec5760008555610533565b82601f1061050557805160ff1916838001178555610533565b82800160010185558215610533579182015b82811115610532578251825591602001919060010190610517565b5b5090506105409190610544565b5090565b5b8082111561055d576000816000905550600101610545565b5090565b6000604051905090565b600080fd5b600080fd5b6000819050919050565b61058881610575565b811461059357600080fd5b50565b6000813590506105a58161057f565b92915050565b6000602082840312156105c1576105c061056b565b5b60006105cf84828501610596565b91505092915050565b6105e181610575565b82525050565b600081519050919050565b600082825260208201905092915050565b60005b83811015610621578082015181840152602081019050610606565b83811115610630576000848401525b50505050565b6000601f19601f8301169050919050565b6000610652826105e7565b61065c81856105f2565b935061066c818560208601610603565b61067581610636565b840191505092915050565b600060408201905061069560008301856105d8565b81810360208301526106a78184610647565b90509392505050565b600080fd5b600080fd5b7f4e487b7100000000000000000000000000000000000000000000000000000000600052604160045260246000fd5b6106f282610636565b810181811067ffffffffffffffff82111715610711576107106106ba565b5b80604052505050565b6000610724610561565b905061073082826106e9565b919050565b600067ffffffffffffffff8211156107505761074f6106ba565b5b61075982610636565b9050602081019050919050565b82818337600083830152505050565b600061078861078384610735565b61071a565b9050828152602081018484840111156107a4576107a36106b5565b5b6107af848285610766565b509392505050565b600082601f8301126107cc576107cb6106b0565b5b81356107dc848260208601610775565b91505092915050565b6000602082840312156107fb576107fa61056b565b5b600082013567ffffffffffffffff81111561081957610818610570565b5b610825848285016107b7565b91505092915050565b600080604083850312156108455761084461056b565b5b600061085385828601610596565b925050602083013567ffffffffffffffff81111561087457610873610570565b5b610880858286016107b7565b9150509250929050565b7f4e487b7100000000000000000000000000000000000000000000000000000000600052602260045260246000fd5b600060028204905060018216806108d157607f821691505b6020821081036108e4576108e361088a565b5b50919050565b7f4e487b7100000000000000000000000000000000000000000000000000000000600052603260045260246000fd5b7f4e487b7100000000000000000000000000000000000000000000000000000000600052601160045260246000fd5b600061095382610575565b91507fffffffffffffffffffffffffffffffffffffffffffffffffffffffffffffffff820361098557610984610919565b5b600182019050919050565b7f5573657220646f6573206e6f7420657869737421000000000000000000000000600082015250565b60006109c66014836105f2565b91506109d182610990565b602082019050919050565b600060208201905081810360008301526109f5816109b9565b905091905056fea26469706673582212201b5ba73f1d6dcd6c7cf3fc5d6b5492269ba5ca2461f537edacf0483f1360130764736f6c634300080d0033",
  "immutableReferences": {},
  "source": "//SPDX-License-Identifier: MIT\r\n\r\npragma solidity ^0.8.0;\r\n\r\ncontract Crud{\r\n    struct User {\r\n        uint id;\r\n        string name;\r\n    }\r\n\r\n    User[] public users;\r\n    uint internal nextId = 1;\r\n\r\n    function create(string memory _name) public {\r\n        users.push(User(nextId, _name));\r\n        nextId++;\r\n    }\r\n    function find(uint _num) view internal returns(uint) {\r\n        for(uint i = 0; i < users.length; i++) {\r\n            if(users[i].id == _num){\r\n                return i;\r\n            }\r\n        }\r\n        revert('User does not exist!');\r\n    }\r\n\r\n    function read(uint _id) view public returns(uint, string memory) {\r\n        uint i = find(_id);\r\n        return(users[i].id, users[i].name);\r\n    }\r\n\r\n    function update(uint _id, string memory _name) public{\r\n        uint i = find(_id);\r\n        users[i].name = _name;\r\n    }\r\n\r\n    function destroy(uint _id) public {\r\n        uint i = find(_id);\r\n        delete users[i];\r\n    }\r\n\r\n\r\n}",
  "sourcePath": "C:\\Users\\DELL R3\\Desktop\\block chain stuff\\truffle_testing\\contracts\\Crud.sol",
  "compiler": {
    "name": "solc",
    "version": "0.8.13+commit.abaa5c0e.Emscripten.clang"
  },
  "schemaVersion": "3.4.7",
  "updatedAt": "2022-05-19T02:08:03.136Z",
  "networkType": "ethereum",
  "devdoc": {
    "kind": "dev",
    "methods": {},
    "version": 1
  },
  "userdoc": {
    "kind": "user",
    "methods": {},
    "version": 1
  }
}